{
  "_format": "hh-sol-artifact-1",
  "contractName": "RageToken",
  "sourceName": "contracts/RageToken.sol",
  "abi": [
    {
      "inputs": [],
      "stateMutability": "nonpayable",
      "type": "constructor"
    },
    {
      "inputs": [
        {
          "internalType": "address",
          "name": "spender",
          "type": "address"
        },
        {
          "internalType": "uint256",
          "name": "allowance",
          "type": "uint256"
        },
        {
          "internalType": "uint256",
          "name": "needed",
          "type": "uint256"
        }
      ],
      "name": "ERC20InsufficientAllowance",
      "type": "error"
    },
    {
      "inputs": [
        {
          "internalType": "address",
          "name": "sender",
          "type": "address"
        },
        {
          "internalType": "uint256",
          "name": "balance",
          "type": "uint256"
        },
        {
          "internalType": "uint256",
          "name": "needed",
          "type": "uint256"
        }
      ],
      "name": "ERC20InsufficientBalance",
      "type": "error"
    },
    {
      "inputs": [
        {
          "internalType": "address",
          "name": "approver",
          "type": "address"
        }
      ],
      "name": "ERC20InvalidApprover",
      "type": "error"
    },
    {
      "inputs": [
        {
          "internalType": "address",
          "name": "receiver",
          "type": "address"
        }
      ],
      "name": "ERC20InvalidReceiver",
      "type": "error"
    },
    {
      "inputs": [
        {
          "internalType": "address",
          "name": "sender",
          "type": "address"
        }
      ],
      "name": "ERC20InvalidSender",
      "type": "error"
    },
    {
      "inputs": [
        {
          "internalType": "address",
          "name": "spender",
          "type": "address"
        }
      ],
      "name": "ERC20InvalidSpender",
      "type": "error"
    },
    {
      "inputs": [
        {
          "internalType": "address",
          "name": "owner",
          "type": "address"
        }
      ],
      "name": "OwnableInvalidOwner",
      "type": "error"
    },
    {
      "inputs": [
        {
          "internalType": "address",
          "name": "account",
          "type": "address"
        }
      ],
      "name": "OwnableUnauthorizedAccount",
      "type": "error"
    },
    {
      "anonymous": false,
      "inputs": [
        {
          "indexed": true,
          "internalType": "address",
          "name": "owner",
          "type": "address"
        },
        {
          "indexed": true,
          "internalType": "address",
          "name": "spender",
          "type": "address"
        },
        {
          "indexed": false,
          "internalType": "uint256",
          "name": "value",
          "type": "uint256"
        }
      ],
      "name": "Approval",
      "type": "event"
    },
    {
      "anonymous": false,
      "inputs": [
        {
          "indexed": false,
          "internalType": "uint256",
          "name": "amount",
          "type": "uint256"
        }
      ],
      "name": "AutoBurned",
      "type": "event"
    },
    {
      "anonymous": false,
      "inputs": [
        {
          "indexed": true,
          "internalType": "address",
          "name": "minter",
          "type": "address"
        }
      ],
      "name": "MintedInRage",
      "type": "event"
    },
    {
      "anonymous": false,
      "inputs": [
        {
          "indexed": true,
          "internalType": "address",
          "name": "previousOwner",
          "type": "address"
        },
        {
          "indexed": true,
          "internalType": "address",
          "name": "newOwner",
          "type": "address"
        }
      ],
      "name": "OwnershipTransferred",
      "type": "event"
    },
    {
      "anonymous": false,
      "inputs": [
        {
          "indexed": true,
          "internalType": "address",
          "name": "from",
          "type": "address"
        },
        {
          "indexed": true,
          "internalType": "address",
          "name": "to",
          "type": "address"
        },
        {
          "indexed": false,
          "internalType": "uint256",
          "name": "value",
          "type": "uint256"
        }
      ],
      "name": "Transfer",
      "type": "event"
    },
    {
      "inputs": [],
      "name": "MINT_AMOUNT",
      "outputs": [
        {
          "internalType": "uint256",
          "name": "",
          "type": "uint256"
        }
      ],
      "stateMutability": "view",
      "type": "function"
    },
    {
      "inputs": [
        {
          "internalType": "address",
          "name": "owner",
          "type": "address"
        },
        {
          "internalType": "address",
          "name": "spender",
          "type": "address"
        }
      ],
      "name": "allowance",
      "outputs": [
        {
          "internalType": "uint256",
          "name": "",
          "type": "uint256"
        }
      ],
      "stateMutability": "view",
      "type": "function"
    },
    {
      "inputs": [
        {
          "internalType": "address",
          "name": "spender",
          "type": "address"
        },
        {
          "internalType": "uint256",
          "name": "value",
          "type": "uint256"
        }
      ],
      "name": "approve",
      "outputs": [
        {
          "internalType": "bool",
          "name": "",
          "type": "bool"
        }
      ],
      "stateMutability": "nonpayable",
      "type": "function"
    },
    {
      "inputs": [],
      "name": "autoBurn",
      "outputs": [],
      "stateMutability": "nonpayable",
      "type": "function"
    },
    {
      "inputs": [
        {
          "internalType": "address",
          "name": "account",
          "type": "address"
        }
      ],
      "name": "balanceOf",
      "outputs": [
        {
          "internalType": "uint256",
          "name": "",
          "type": "uint256"
        }
      ],
      "stateMutability": "view",
      "type": "function"
    },
    {
      "inputs": [
        {
          "internalType": "uint256",
          "name": "amount",
          "type": "uint256"
        }
      ],
      "name": "burn",
      "outputs": [],
      "stateMutability": "nonpayable",
      "type": "function"
    },
    {
      "inputs": [],
      "name": "burnInterval",
      "outputs": [
        {
          "internalType": "uint256",
          "name": "",
          "type": "uint256"
        }
      ],
      "stateMutability": "view",
      "type": "function"
    },
    {
      "inputs": [],
      "name": "burnRate",
      "outputs": [
        {
          "internalType": "uint256",
          "name": "",
          "type": "uint256"
        }
      ],
      "stateMutability": "view",
      "type": "function"
    },
    {
      "inputs": [],
      "name": "claim",
      "outputs": [],
      "stateMutability": "nonpayable",
      "type": "function"
    },
    {
      "inputs": [],
      "name": "decimals",
      "outputs": [
        {
          "internalType": "uint8",
          "name": "",
          "type": "uint8"
        }
      ],
      "stateMutability": "view",
      "type": "function"
    },
    {
      "inputs": [],
      "name": "getTotalClaimed",
      "outputs": [
        {
          "internalType": "uint256",
          "name": "",
          "type": "uint256"
        }
      ],
      "stateMutability": "view",
      "type": "function"
    },
    {
      "inputs": [
        {
          "internalType": "address",
          "name": "",
          "type": "address"
        }
      ],
      "name": "hasClaimed",
      "outputs": [
        {
          "internalType": "bool",
          "name": "",
          "type": "bool"
        }
      ],
      "stateMutability": "view",
      "type": "function"
    },
    {
      "inputs": [],
      "name": "lastBurn",
      "outputs": [
        {
          "internalType": "uint256",
          "name": "",
          "type": "uint256"
        }
      ],
      "stateMutability": "view",
      "type": "function"
    },
    {
      "inputs": [],
      "name": "mint",
      "outputs": [],
      "stateMutability": "nonpayable",
      "type": "function"
    },
    {
      "inputs": [],
      "name": "name",
      "outputs": [
        {
          "internalType": "string",
          "name": "",
          "type": "string"
        }
      ],
      "stateMutability": "view",
      "type": "function"
    },
    {
      "inputs": [],
      "name": "owner",
      "outputs": [
        {
          "internalType": "address",
          "name": "",
          "type": "address"
        }
      ],
      "stateMutability": "view",
      "type": "function"
    },
    {
      "inputs": [],
      "name": "renounceOwnership",
      "outputs": [],
      "stateMutability": "nonpayable",
      "type": "function"
    },
    {
      "inputs": [],
      "name": "symbol",
      "outputs": [
        {
          "internalType": "string",
          "name": "",
          "type": "string"
        }
      ],
      "stateMutability": "view",
      "type": "function"
    },
    {
      "inputs": [],
      "name": "totalClaimed",
      "outputs": [
        {
          "internalType": "uint256",
          "name": "",
          "type": "uint256"
        }
      ],
      "stateMutability": "view",
      "type": "function"
    },
    {
      "inputs": [],
      "name": "totalSupply",
      "outputs": [
        {
          "internalType": "uint256",
          "name": "",
          "type": "uint256"
        }
      ],
      "stateMutability": "view",
      "type": "function"
    },
    {
      "inputs": [
        {
          "internalType": "address",
          "name": "to",
          "type": "address"
        },
        {
          "internalType": "uint256",
          "name": "value",
          "type": "uint256"
        }
      ],
      "name": "transfer",
      "outputs": [
        {
          "internalType": "bool",
          "name": "",
          "type": "bool"
        }
      ],
      "stateMutability": "nonpayable",
      "type": "function"
    },
    {
      "inputs": [
        {
          "internalType": "address",
          "name": "from",
          "type": "address"
        },
        {
          "internalType": "address",
          "name": "to",
          "type": "address"
        },
        {
          "internalType": "uint256",
          "name": "value",
          "type": "uint256"
        }
      ],
      "name": "transferFrom",
      "outputs": [
        {
          "internalType": "bool",
          "name": "",
          "type": "bool"
        }
      ],
      "stateMutability": "nonpayable",
      "type": "function"
    },
    {
      "inputs": [
        {
          "internalType": "address",
          "name": "newOwner",
          "type": "address"
        }
      ],
      "name": "transferOwnership",
      "outputs": [],
      "stateMutability": "nonpayable",
      "type": "function"
    }
  ],
  "bytecode": "0x608060405262015180600855670de0b6b3a76400006009553480156200002457600080fd5b5033604051806040016040528060048152602001635241474560e01b81525060405180604001604052806005815260200164245241474560d81b8152508160039081620000729190620001bc565b506004620000818282620001bc565b5050506001600160a01b038116620000b357604051631e4fbdf760e01b81526000600482015260240160405180910390fd5b620000be81620000c5565b5062000288565b600580546001600160a01b038381166001600160a01b0319831681179093556040519116919082907f8be0079c531659141344cd1fd0a4f28419497f9722a3daafe3b4186f6b6457e090600090a35050565b634e487b7160e01b600052604160045260246000fd5b600181811c908216806200014257607f821691505b6020821081036200016357634e487b7160e01b600052602260045260246000fd5b50919050565b601f821115620001b757600081815260208120601f850160051c81016020861015620001925750805b601f850160051c820191505b81811015620001b3578281556001016200019e565b5050505b505050565b81516001600160401b03811115620001d857620001d862000117565b620001f081620001e984546200012d565b8462000169565b602080601f8311600181146200022857600084156200020f5750858301515b600019600386901b1c1916600185901b178555620001b3565b600085815260208120601f198616915b82811015620002595788860151825594840194600190910190840162000238565b5085821015620002785787850151600019600388901b60f8161c191681555b5050505050600190811b01905550565b610bf780620002986000396000f3fe608060405234801561001057600080fd5b506004361061014d5760003560e01c8063736a83a1116100c3578063bbce2c171161007c578063bbce2c1714610295578063bed998501461029e578063d54ad2a1146102a7578063dd62ed3e146102b0578063e55a68b3146102e9578063f2fde38b146102f257600080fd5b8063736a83a11461022c57806373b2e80e146102345780638da5cb5b1461025757806395d89b4114610272578063a63b91f41461027a578063a9059cbb1461028257600080fd5b8063313ce56711610115578063313ce567146101c257806342966c68146101d15780634e71d92d146101e45780635427789c146101ec57806370a08231146101fb578063715018a61461022457600080fd5b806306fdde0314610152578063095ea7b3146101705780631249c58b1461019357806318160ddd1461019d57806323b872dd146101af575b600080fd5b61015a610305565b6040516101679190610a28565b60405180910390f35b61018361017e366004610a92565b610397565b6040519015158152602001610167565b61019b6103b1565b005b6002545b604051908152602001610167565b6101836101bd366004610abc565b610480565b60405160128152602001610167565b61019b6101df366004610af8565b6104a4565b61019b6104b1565b6101a1670de0b6b3a764000081565b6101a1610209366004610b11565b6001600160a01b031660009081526020819052604090205490565b61019b610549565b600a546101a1565b610183610242366004610b11565b60066020526000908152604090205460ff1681565b6005546040516001600160a01b039091168152602001610167565b61015a61055d565b61019b61056c565b610183610290366004610a92565b610601565b6101a160075481565b6101a160095481565b6101a1600a5481565b6101a16102be366004610b33565b6001600160a01b03918216600090815260016020908152604080832093909416825291909152205490565b6101a160085481565b61019b610300366004610b11565b61060f565b60606003805461031490610b66565b80601f016020809104026020016040519081016040528092919081815260200182805461034090610b66565b801561038d5780601f106103625761010080835404028352916020019161038d565b820191906000526020600020905b81548152906001019060200180831161037057829003601f168201915b5050505050905090565b6000336103a581858561064a565b60019150505b92915050565b3360009081526006602052604090205460ff16156104075760405162461bcd60e51b815260206004820152600e60248201526d105b1c9958591e481b5a5b9d195960921b60448201526064015b60405180910390fd5b336000908152600660205260409020805460ff1916600117905561042961056c565b61043b33670de0b6b3a764000061065c565b6001600a600082825461044e9190610ba0565b909155505060405133907f1d898605c96fc6e2a608ccc2df6f13ecb7c717b995e5c45a5fa5478f452e5bd890600090a2565b60003361048e858285610696565b610499858585610715565b506001949350505050565b6104ae3382610774565b50565b3360009081526006602052604090205460ff16156105035760405162461bcd60e51b815260206004820152600f60248201526e105b1c9958591e4818db185a5b5959608a1b60448201526064016103fe565b336000818152600660205260409020805460ff1916600117905561052f90670de0b6b3a764000061065c565b6001600a60008282546105429190610ba0565b9091555050565b6105516107aa565b61055b60006107d7565b565b60606004805461031490610b66565b60085460075461057c9190610ba0565b42101561058557565b600061059060025490565b90508060000361059d5750565b600954818111156105ab5750805b6105c66105c06005546001600160a01b031690565b82610774565b426007556040518181527fc0881daff2be95a16d66320aeb3ddd71b3595c99533ef75c5fc81796609866ff9060200160405180910390a15050565b6000336103a5818585610715565b6106176107aa565b6001600160a01b03811661064157604051631e4fbdf760e01b8152600060048201526024016103fe565b6104ae816107d7565b6106578383836001610829565b505050565b6001600160a01b0382166106865760405163ec442f0560e01b8152600060048201526024016103fe565b610692600083836108fe565b5050565b6001600160a01b0383811660009081526001602090815260408083209386168352929052205460001981101561070f578181101561070057604051637dc7a0d960e11b81526001600160a01b038416600482015260248101829052604481018390526064016103fe565b61070f84848484036000610829565b50505050565b6001600160a01b03831661073f57604051634b637e8f60e11b8152600060048201526024016103fe565b6001600160a01b0382166107695760405163ec442f0560e01b8152600060048201526024016103fe565b6106578383836108fe565b6001600160a01b03821661079e57604051634b637e8f60e11b8152600060048201526024016103fe565b610692826000836108fe565b6005546001600160a01b0316331461055b5760405163118cdaa760e01b81523360048201526024016103fe565b600580546001600160a01b038381166001600160a01b0319831681179093556040519116919082907f8be0079c531659141344cd1fd0a4f28419497f9722a3daafe3b4186f6b6457e090600090a35050565b6001600160a01b0384166108535760405163e602df0560e01b8152600060048201526024016103fe565b6001600160a01b03831661087d57604051634a1406b160e11b8152600060048201526024016103fe565b6001600160a01b038085166000908152600160209081526040808320938716835292905220829055801561070f57826001600160a01b0316846001600160a01b03167f8c5be1e5ebec7d5bd14f71427d1e84f3dd0314c0f7b2291e5b200ac8c7c3b925846040516108f091815260200190565b60405180910390a350505050565b6001600160a01b03831661092957806002600082825461091e9190610ba0565b9091555061099b9050565b6001600160a01b0383166000908152602081905260409020548181101561097c5760405163391434e360e21b81526001600160a01b038516600482015260248101829052604481018390526064016103fe565b6001600160a01b03841660009081526020819052604090209082900390555b6001600160a01b0382166109b7576002805482900390556109d6565b6001600160a01b03821660009081526020819052604090208054820190555b816001600160a01b0316836001600160a01b03167fddf252ad1be2c89b69c2b068fc378daa952ba7f163c4a11628f55a4df523b3ef83604051610a1b91815260200190565b60405180910390a3505050565b600060208083528351808285015260005b81811015610a5557858101830151858201604001528201610a39565b506000604082860101526040601f19601f8301168501019250505092915050565b80356001600160a01b0381168114610a8d57600080fd5b919050565b60008060408385031215610aa557600080fd5b610aae83610a76565b946020939093013593505050565b600080600060608486031215610ad157600080fd5b610ada84610a76565b9250610ae860208501610a76565b9150604084013590509250925092565b600060208284031215610b0a57600080fd5b5035919050565b600060208284031215610b2357600080fd5b610b2c82610a76565b9392505050565b60008060408385031215610b4657600080fd5b610b4f83610a76565b9150610b5d60208401610a76565b90509250929050565b600181811c90821680610b7a57607f821691505b602082108103610b9a57634e487b7160e01b600052602260045260246000fd5b50919050565b808201808211156103ab57634e487b7160e01b600052601160045260246000fdfea26469706673582212202d236b48d5705b183197a8198bc07985a69ceb2b450a7dd6111a2fdfd416064f64736f6c63430008140033",
  "linkReferences": {},
  "deployedLinkReferences": {}
}